:100000000C9434000C9451000C9451000C94810217
:100010000C94A6020C94CB020C9451000C94510049
:100020000C9451000C9451000C9451000C9451000C
:100030000C9451000C9451000C9451000C945100FC
:100040000C9451000C9451000C9451000C945100EC
:100050000C9451000C9451000C9451000C945100DC
:100060000C9451000C94510011241FBECFEFD8E026
:10007000DEBFCDBF21E0A6E0B1E001C01D92A431FA
:10008000B207E1F711E0A0E0B1E0E0E3F8E002C080
:1000900005900D92A630B107D9F70E94F0020C949A
:1000A00016040C940000E82FF0E0EE0FFF1FEA5F4B
:1000B000FE4F0190F081E02D309709F009940895EA
:1000C000CF92DF92EF92FF920F931F93CF93DF9324
:1000D000C12C8431A8F4C0900C01D0900D01E090A7
:1000E0000E01F0900F01082E04C0F694E794D79407
:1000F000C7940A94D2F791E0C92691E0C922DD2481
:10010000C0FC0CC0F0E0E0E0CF01DF91CF911F9187
:100110000F91FF90EF90DF90CF900895633090F7AC
:100120007A018B01C82F8BE090E00E94F102FC0164
:10013000892B41F3C287C830A0F48AE290E0918312
:1001400080838BE290E09383828389E290E09583C1
:100150008483C1878DE690E09783868382E08087E1
:1001600015C0CE3088F584E290E09183808385E2EB
:1001700090E09383828383E290E095838483C850E8
:10018000C1878BE690E0978386831086218581E086
:1001900090E0A0E0B0E0AC01BD0104C0440F551FE9
:1001A000661F771F2A95D2F70130110519F1023029
:1001B000110509F45EC0C281D38128814095422394
:1001C0004883C081D1815CC0C43100F787E290E0F0
:1001D0009183808388E290E09383828386E290E03B
:1001E00095838483CE50C1878CE690E09783868385
:1001F00081E0B5CFC081D1812881409542234883D9
:10020000C281D3812881318504C0880F991FAA1F1C
:10021000BB1F3A95D2F7822B8883E114F10441F099
:10022000A085B0E0AA0FBB1FAA5FBE4FED92FC9263
:10023000228581E090E0A0E0B0E004C0880F991F23
:10024000AA1FBB1F2A95D2F740910C0150910D01B6
:1002500060910E0170910F01842B952BA62BB72B6B
:1002600080930C0190930D01A0930E01B0930F01A8
:100270004BCFC081D1812881422B4883C281D38159
:100280002881318504C0880F991FAA1FBB1F3A958A
:10029000D2F780958223C0CFCF92DF92EF92FF9268
:1002A0001F93CF93DF93009709F456C0DC01ED91C3
:1002B000FC91309709F450C0EC0120813181D901C3
:1002C0001C91818541E050E060E070E06A017B01B3
:1002D00004C0CC0CDD1CEE1CFF1C8A95D2F7C601B5
:1002E00080958123D9018C9322813381D9011C917E
:1002F00081856A017B0104C0CC0CDD1CEE1CFF1C57
:100300008A95D2F7C60180958123D9018C93828585
:1003100004C0440F551F661F771F8A95D2F740957A
:1003200050956095709580910C0190910D01A09170
:100330000E01B0910F0184239523A623B723809348
:100340000C0190930D01A0930E01B0930F01CF010A
:100350000E948D0319821882DF91CF911F91FF9027
:10036000EF90DF90CF900895FC01362F892B21F17B
:10037000A081B1814C91218550E070E060E0022EB7
:1003800004C076956795579547950A94D2F740FF34
:1003900013C00280F381E02D81E090E0A0E0B0E0A6
:1003A00004C0880F991FAA1FBB1F2A95D2F720816E
:1003B000332319F0822B8083089580958223FBCF0D
:1003C000FC0180E0309789F0A481B5819C91892F50
:1003D00090E0B0E0A0E0218504C0B695A795979580
:1003E00087952A95D2F78170992781700895FC012D
:1003F000892B11F1A081B1814C91318550E070E0E1
:1004000060E0032E04C076956795579547950A944A
:10041000D2F740FF11C00480F581E02D208181E0FA
:1004200090E0A0E0B0E004C0880F991FAA1FBB1F96
:100430003A95D2F7822B80830895EF92FF920F9323
:100440001F93FC01892B11F120916800908541E0F8
:1004500050E060E070E07A018B0104C0EE0CFF1CFC
:10046000001F111F9A95D2F7C701822B8093680055
:10047000A681B7818C91918504C0440F551F661FDA
:10048000771F9A95D2F7482B4C9378941F910F9130
:10049000FF90EF900895CF92DF92EF92FF920F932B
:1004A0001F93FC01862F309729F1A681B7819C917B
:1004B000218541E050E060E070E06A017B0104C00A
:1004C000CC0CDD1CEE1CFF1C2A95D2F78601009592
:1004D00009230C93882371F080916800908504C0F3
:1004E000440F551F661F771F9A95D2F740954823F2
:1004F000409368001F910F91FF90EF90DF90CF9095
:1005000008951F920F920FB60F9211242F933F93CD
:100510004F935F936F937F938F939F93AF93BF930B
:10052000EF93FF9380E00E945300FF91EF91BF9102
:10053000AF919F918F917F916F915F914F913F917B
:100540002F910F900FBE0F901F9018951F920F9232
:100550000FB60F9211242F933F934F935F936F9396
:100560007F938F939F93AF93BF93EF93FF9381E01C
:100570000E945300FF91EF91BF91AF919F918F9196
:100580007F916F915F914F913F912F910F900FBE8F
:100590000F901F9018951F920F920FB60F92112473
:1005A0002F933F934F935F936F937F938F939F937B
:1005B000AF93BF93EF93FF9382E00E945300FF91AC
:1005C000EF91BF91AF919F918F917F916F915F91CB
:1005D0004F913F912F910F900FBE0F901F90189544
:1005E000FFCF0F931F93CF93DF938230910510F4C9
:1005F00082E090E0E0911201F091130130E020E000
:10060000B0E0A0E0309799F42115310509F44AC013
:10061000281B390B24303105D8F58A819B8161155F
:10062000710589F1FB0193838283FE0111C0408132
:1006300051810281138148175907E0F04817590783
:1006400099F4109761F012960C93129713961C93DD
:100650003296CF01DF91CF911F910F9108950093B2
:10066000120110931301F4CF2115310551F04217F7
:10067000530738F0A901DB019A01BD01DF01F80140
:10068000C1CFEF01F9CF9093130180931201CDCF29
:10069000FE01E20FF31F81939193225031093983B8
:1006A0002883D7CF2091100130911101232B41F4E1
:1006B0002091020130910301309311012093100128
:1006C00020910001309101012115310541F42DB730
:1006D0003EB74091040150910501241B350BE09178
:1006E0001001F0911101E217F307A0F42E1B3F0B4C
:1006F0002817390778F0AC014E5F5F4F2417350794
:1007000048F04E0F5F1F50931101409310018193E9
:1007100091939FCFF0E0E0E09CCFCF93DF930097E1
:10072000E9F0FC01329713821282A0911201B0917C
:100730001301ED0130E020E01097A1F42081318118
:10074000820F931F20911001309111012817390752
:1007500009F061C0F0931101E0931001DF91CF9196
:100760000895EA01CE17DF07E8F54A815B819E0113
:1007700041155105B1F7E901FB83EA83499159918C
:10078000C40FD51FEC17FD0761F48081918102969B
:10079000840F951FE90199838883828193819B83CC
:1007A0008A83F0E0E0E012968D919C911397009778
:1007B000B9F52D913C911197CD010296820F931FAF
:1007C00020911001309111012817390739F630971F
:1007D00051F51092130110921201B0931101A093E0
:1007E0001001BCCFD383C28340815181840F951FF8
:1007F000C817D90761F44E5F5F4F88819981480F10
:10080000591F518340838A819B8193838283211561
:10081000310509F0B0CFF0931301E09312019ECFA0
:10082000FD01DC01C0CF13821282D7CFF894FFCF35
:060830000000140120008D
:00000001FF
